{
  "contractName": "AssetTokenizationRegistry",
  "abi": [
    {
      "inputs": [],
      "payable": false,
      "stateMutability": "nonpayable",
      "type": "constructor"
    },
    {
      "anonymous": false,
      "inputs": [
        {
          "indexed": true,
          "internalType": "address",
          "name": "previousOwner",
          "type": "address"
        },
        {
          "indexed": true,
          "internalType": "address",
          "name": "newOwner",
          "type": "address"
        }
      ],
      "name": "OwnershipTransferred",
      "type": "event"
    },
    {
      "anonymous": false,
      "inputs": [
        {
          "indexed": false,
          "internalType": "address",
          "name": "proxy",
          "type": "address"
        }
      ],
      "name": "ProxyCreated",
      "type": "event"
    },
    {
      "anonymous": false,
      "inputs": [
        {
          "indexed": false,
          "internalType": "uint256",
          "name": "version",
          "type": "uint256"
        },
        {
          "indexed": false,
          "internalType": "address",
          "name": "implementation",
          "type": "address"
        }
      ],
      "name": "VersionAdded",
      "type": "event"
    },
    {
      "constant": true,
      "inputs": [],
      "name": "currentVersion",
      "outputs": [
        {
          "internalType": "uint256",
          "name": "",
          "type": "uint256"
        }
      ],
      "payable": false,
      "stateMutability": "view",
      "type": "function"
    },
    {
      "constant": true,
      "inputs": [],
      "name": "owner",
      "outputs": [
        {
          "internalType": "address",
          "name": "",
          "type": "address"
        }
      ],
      "payable": false,
      "stateMutability": "view",
      "type": "function"
    },
    {
      "constant": true,
      "inputs": [],
      "name": "proxyAddress",
      "outputs": [
        {
          "internalType": "address payable",
          "name": "",
          "type": "address"
        }
      ],
      "payable": false,
      "stateMutability": "view",
      "type": "function"
    },
    {
      "constant": false,
      "inputs": [
        {
          "internalType": "address",
          "name": "newOwner",
          "type": "address"
        }
      ],
      "name": "transferOwnership",
      "outputs": [],
      "payable": false,
      "stateMutability": "nonpayable",
      "type": "function"
    },
    {
      "constant": false,
      "inputs": [
        {
          "internalType": "uint256",
          "name": "version",
          "type": "uint256"
        },
        {
          "internalType": "address",
          "name": "implementation",
          "type": "address"
        }
      ],
      "name": "addVersion",
      "outputs": [],
      "payable": false,
      "stateMutability": "nonpayable",
      "type": "function"
    },
    {
      "constant": true,
      "inputs": [
        {
          "internalType": "uint256",
          "name": "version",
          "type": "uint256"
        }
      ],
      "name": "getVersion",
      "outputs": [
        {
          "internalType": "address",
          "name": "",
          "type": "address"
        }
      ],
      "payable": false,
      "stateMutability": "view",
      "type": "function"
    },
    {
      "constant": false,
      "inputs": [
        {
          "internalType": "uint256",
          "name": "version",
          "type": "uint256"
        },
        {
          "internalType": "address",
          "name": "_owner",
          "type": "address"
        }
      ],
      "name": "createProxy",
      "outputs": [
        {
          "internalType": "address",
          "name": "",
          "type": "address"
        }
      ],
      "payable": false,
      "stateMutability": "nonpayable",
      "type": "function"
    },
    {
      "constant": false,
      "inputs": [
        {
          "internalType": "uint256",
          "name": "version",
          "type": "uint256"
        }
      ],
      "name": "upgradeTo",
      "outputs": [
        {
          "internalType": "bool",
          "name": "",
          "type": "bool"
        }
      ],
      "payable": false,
      "stateMutability": "nonpayable",
      "type": "function"
    }
  ],
  "bytecode": "0x608060405234801561001057600080fd5b5060008054600160a060020a0319163317808255604051600160a060020a039190911691907f8be0079c531659141344cd1fd0a4f28419497f9722a3daafe3b4186f6b6457e0908290a3610b4a806100696000396000f3fe608060405234801561001057600080fd5b50600436106100a5576000357c010000000000000000000000000000000000000000000000000000000090048063b88da75911610078578063b88da7591461011e578063f100ff271461013b578063f2fde38b14610167578063fd016b341461018d576100a5565b806323f5c02d146100aa578063272860fd146100ce5780638da5cb5b146100fc5780639d888e8614610104575b600080fd5b6100b26101be565b60408051600160a060020a039092168252519081900360200190f35b6100fa600480360360408110156100e457600080fd5b5080359060200135600160a060020a03166101cd565b005b6100b261033c565b61010c61034b565b60408051918252519081900360200190f35b6100b26004803603602081101561013457600080fd5b5035610351565b6100b26004803603604081101561015157600080fd5b5080359060200135600160a060020a031661036c565b6100fa6004803603602081101561017d57600080fd5b5035600160a060020a0316610526565b6101aa600480360360208110156101a357600080fd5b50356105b1565b604080519115158252519081900360200190f35b600354600160a060020a031681565b600054600160a060020a031633146101e457600080fd5b600160a060020a03811661025957604080517f08c379a000000000000000000000000000000000000000000000000000000000815260206004820152601060248201527f4552525f5a45524f5f4144445245535300000000000000000000000000000000604482015290519081900360640190fd5b600082815260016020526040902054600160a060020a0316156102c7576040517f08c379a0000000000000000000000000000000000000000000000000000000008152600401808060200182810382526026815260200180610af06026913960400191505060405180910390fd5b600082815260016020908152604091829020805473ffffffffffffffffffffffffffffffffffffffff1916600160a060020a03851690811790915582518581529182015281517f8acfa0f943685107a3a6f2951a8e8d9bd985bef6caa1e2677d3fb5e9fb21ef75929181900390910190a15050565b600054600160a060020a031681565b60025481565b600090815260016020526040902054600160a060020a031690565b60008054600160a060020a0316331461038457600080fd5b600354600160a060020a0316156103fc57604080517f08c379a000000000000000000000000000000000000000000000000000000000815260206004820152601960248201527f4552525f50524f58595f414c52454144595f4352454154454400000000000000604482015290519081900360640190fd5b60008360405161040b90610654565b90815260405190819003602001906000f08015801561042e573d6000803e3d6000fd5b50905080600160a060020a031663c4d66de8846040518263ffffffff167c01000000000000000000000000000000000000000000000000000000000281526004018082600160a060020a0316600160a060020a03168152602001915050600060405180830381600087803b1580156104a557600080fd5b505af11580156104b9573d6000803e3d6000fd5b50505060028590555060038054600160a060020a03831673ffffffffffffffffffffffffffffffffffffffff19909116811790915560408051918252517efffc2da0b561cae30d9826d37709e9421c4725faebc226cbbb7ef5fc5e73499181900360200190a19392505050565b600054600160a060020a0316331461053d57600080fd5b600160a060020a038116156105ae5760008054604051600160a060020a03808516939216917f8be0079c531659141344cd1fd0a4f28419497f9722a3daafe3b4186f6b6457e091a36000805473ffffffffffffffffffffffffffffffffffffffff1916600160a060020a0383161790555b50565b60008054600160a060020a031633146105c957600080fd5b6002829055600354604080517ffd016b34000000000000000000000000000000000000000000000000000000008152600481018590529051600160a060020a039092169163fd016b349160248082019260009290919082900301818387803b15801561063457600080fd5b505af1158015610648573d6000803e3d6000fd5b50600195945050505050565b61048e806106628339019056fe608060405234801561001057600080fd5b5060405161048e38038061048e8339818101604052602081101561003357600080fd5b505160008054600160a060020a031916331790556100598164010000000061005f810204565b5061018b565b600054600160a060020a031633146100d857604080517f08c379a000000000000000000000000000000000000000000000000000000000815260206004820152601c60248201527f4552525f4f4e4c595f524547495354524552595f43414e5f43414c4c00000000604482015290519081900360640190fd5b600054604080517fb88da759000000000000000000000000000000000000000000000000000000008152600481018490529051600160a060020a039092169163b88da75991602480820192602092909190829003018186803b15801561013d57600080fd5b505afa158015610151573d6000803e3d6000fd5b505050506040513d602081101561016757600080fd5b505160018054600160a060020a031916600160a060020a0390921691909117905550565b6102f48061019a6000396000f3fe608060405260043610610050577c010000000000000000000000000000000000000000000000000000000060003504635c60da1b81146100f65780637b10399914610127578063fd016b341461013c575b600061005a610168565b9050600160a060020a0381166100d157604080517f08c379a000000000000000000000000000000000000000000000000000000000815260206004820152601660248201527f4552525f494d504c454d454e5445494f4e5f5a45524f00000000000000000000604482015290519081900360640190fd5b60405136600082376000803683855af43d806000843e8180156100f2578184f35b8184fd5b34801561010257600080fd5b5061010b610168565b60408051600160a060020a039092168252519081900360200190f35b34801561013357600080fd5b5061010b610177565b34801561014857600080fd5b506101666004803603602081101561015f57600080fd5b5035610186565b005b600154600160a060020a031690565b600054600160a060020a031681565b600054600160a060020a031633146101ff57604080517f08c379a000000000000000000000000000000000000000000000000000000000815260206004820152601c60248201527f4552525f4f4e4c595f524547495354524552595f43414e5f43414c4c00000000604482015290519081900360640190fd5b600054604080517fb88da759000000000000000000000000000000000000000000000000000000008152600481018490529051600160a060020a039092169163b88da75991602480820192602092909190829003018186803b15801561026457600080fd5b505afa158015610278573d6000803e3d6000fd5b505050506040513d602081101561028e57600080fd5b50516001805473ffffffffffffffffffffffffffffffffffffffff1916600160a060020a039092169190911790555056fea265627a7a72315820cb27a49b2cfc0c04f6c00a9dac9fab6ee6236b5017bab300cad1f3b434f0c98b64736f6c634300051000324552525f56455253494f4e5f4841535f494d504c454d454e544154494f4e5f414c5245414459a265627a7a7231582065ea46898f92fa7828673db539865a848ff0a3f42089763a70f54aee01b0f16764736f6c63430005100032",
  "source": "pragma solidity ^0.5.9;\n\nimport \"./Proxy/IRegistry.sol\";\nimport \"./Ownable.sol\";\nimport \"./Proxy/UpgradeabilityProxy.sol\";\n\ninterface InitializeInterface {\n    function initialize(address _owner) external;\n}\n\n/**\n * @title Registry\n * @dev This contract works as a registry of versions, it holds the implementations for the registered versions.\n */\ncontract AssetTokenizationRegistry is IRegistry, Ownable {\n    // Mapping of versions to implementations of different functions\n    mapping(uint256 => address) internal versions;\n\n    uint256 public currentVersion;\n\n    address payable public proxyAddress;\n\n    //@dev constructor\n\n    constructor() public {}\n\n    /**\n     * @dev Registers a new version with its implementation address\n     * @param version representing the version name of the new implementation to be registered\n     * @param implementation representing the address of the new implementation to be registered\n     */\n    function addVersion(uint256 version, address implementation)\n        public\n        onlyOwner\n    {\n        require(implementation != address(0), \"ERR_ZERO_ADDRESS\");\n        require(\n            versions[version] == address(0),\n            \"ERR_VERSION_HAS_IMPLEMENTATION_ALREADY\"\n        );\n        versions[version] = implementation;\n        emit VersionAdded(version, implementation);\n    }\n\n    /**\n     * @dev Tells the address of the implementation for a given version\n     * @param version to query the implementation of\n     * @return address of the implementation registered for the given version\n     */\n    function getVersion(uint256 version) public view returns (address) {\n        return versions[version];\n    }\n\n    /**\n     * @dev Creates an upgradeable proxy\n     * @param version representing the first version to be set for the proxy\n     * @return address of the new proxy created\n     */\n    function createProxy(uint256 version, address _owner)\n        external\n        onlyOwner\n        returns (address)\n    {\n        require(proxyAddress == address(0), \"ERR_PROXY_ALREADY_CREATED\");\n\n        UpgradeabilityProxy proxy = new UpgradeabilityProxy(version);\n\n        InitializeInterface(address(proxy)).initialize(_owner);\n\n        currentVersion = version;\n        proxyAddress = address(proxy);\n        emit ProxyCreated(address(proxy));\n        return address(proxy);\n    }\n\n    /**\n     * @dev Upgrades the implementation to the requested version\n     * @param version representing the version name of the new implementation to be set\n     */\n\n    function upgradeTo(uint256 version) public onlyOwner returns (bool) {\n        currentVersion = version;\n        UpgradeabilityProxy(proxyAddress).upgradeTo(version);\n        return true;\n    }\n}\n",
  "sourcePath": "/home/ay/Asset-Tokenization/contracts/AssetTokenizationRegistry.sol",
  "compiler": {
    "name": "solc",
    "version": "0.5.16+commit.9c3226ce.Emscripten.clang"
  },
  "schemaVersion": "3.2.5",
  "updatedAt": "2021-02-12T10:19:52.526Z",
  "devdoc": {
    "details": "This contract works as a registry of versions, it holds the implementations for the registered versions.",
    "methods": {
      "addVersion(uint256,address)": {
        "details": "Registers a new version with its implementation address",
        "params": {
          "implementation": "representing the address of the new implementation to be registered",
          "version": "representing the version name of the new implementation to be registered"
        }
      },
      "createProxy(uint256,address)": {
        "details": "Creates an upgradeable proxy",
        "params": {
          "version": "representing the first version to be set for the proxy"
        },
        "return": "address of the new proxy created"
      },
      "getVersion(uint256)": {
        "details": "Tells the address of the implementation for a given version",
        "params": {
          "version": "to query the implementation of"
        },
        "return": "address of the implementation registered for the given version"
      },
      "upgradeTo(uint256)": {
        "details": "Upgrades the implementation to the requested version",
        "params": {
          "version": "representing the version name of the new implementation to be set"
        }
      }
    },
    "title": "Registry"
  },
  "userdoc": {
    "methods": {}
  }
}