{
  "contractName": "AssetTokenizationStorage",
  "abi": [
    {
      "constant": true,
      "inputs": [],
      "name": "contractOwner",
      "outputs": [
        {
          "internalType": "address payable",
          "name": "",
          "type": "address"
        }
      ],
      "payable": false,
      "stateMutability": "view",
      "type": "function"
    },
    {
      "constant": true,
      "inputs": [],
      "name": "creationFee",
      "outputs": [
        {
          "internalType": "uint256",
          "name": "",
          "type": "uint256"
        }
      ],
      "payable": false,
      "stateMutability": "view",
      "type": "function"
    },
    {
      "constant": true,
      "inputs": [],
      "name": "decimal",
      "outputs": [
        {
          "internalType": "uint8",
          "name": "",
          "type": "uint8"
        }
      ],
      "payable": false,
      "stateMutability": "view",
      "type": "function"
    },
    {
      "constant": true,
      "inputs": [],
      "name": "tokenId",
      "outputs": [
        {
          "internalType": "uint256",
          "name": "",
          "type": "uint256"
        }
      ],
      "payable": false,
      "stateMutability": "view",
      "type": "function"
    },
    {
      "constant": true,
      "inputs": [],
      "name": "verificationListAddress",
      "outputs": [
        {
          "internalType": "address",
          "name": "",
          "type": "address"
        }
      ],
      "payable": false,
      "stateMutability": "view",
      "type": "function"
    }
  ],
  "bytecode": "0x608060405234801561001057600080fd5b50610173806100206000396000f3fe608060405234801561001057600080fd5b5060043610610073577c0100000000000000000000000000000000000000000000000000000000600035046317d70f7c811461007857806376809ce314610092578063a5d052df146100b0578063ce606ee0146100e1578063dce0b4e4146100e9575b600080fd5b6100806100f1565b60408051918252519081900360200190f35b61009a6100f7565b6040805160ff9092168252519081900360200190f35b6100b8610100565b6040805173ffffffffffffffffffffffffffffffffffffffff9092168252519081900360200190f35b6100b861011c565b610080610138565b60015481565b60025460ff1681565b60045473ffffffffffffffffffffffffffffffffffffffff1681565b60005473ffffffffffffffffffffffffffffffffffffffff1681565b6003548156fea265627a7a723158202399831570f2676556ec1ae892cfa823853630914e5538f16860044e8abd26ef64736f6c63430005100032",
  "source": "/**\n * @file AssetTokenization.sol\n # @author https://github.com/amityadav0\n *\n * contract to store and create erc20 tokens on payment\n */\n\npragma solidity >=0.5.0 <0.6.0;\n\nimport \"../Tokenize.sol\";\nimport \"../Proxy/InitializableOwnable.sol\";\nimport \"../Proxy/Upgradeable.sol\";\n\ninterface InitializeInterface {\n    function initialize(address _owner) external;\n}\n\ncontract AssetTokenizationStorage {\n    using SafeMath for uint256;\n\n    // State variables\n    address payable public contractOwner; // Admin address\n    uint256 public tokenId; // ID for token being created - use: mapping token to address\n    uint8 public decimal; // Decimals for tokens being created\n    uint256 public creationFee; // Fee charged for token creation\n    address public verificationListAddress; //the uinque verificationList\n\n    // Mappings\n    mapping(uint256 => address) tokenOwner; // Token owner address mapped to token id\n    mapping(uint256 => address) tokenAddress; // Token contract address mapped to token id\n    mapping(uint256 => Token) tokenDetails; // Token details mapped to token id\n    mapping(address => Token) tokenContract; // Token details mapped to token contract address\n    mapping(address => string) ownerInfo; // A URI that takes to where all the info is stores(It would be like https://ipfs.io/ipfs/[ipfsHash])\n    mapping(address => mapping(uint256 => address)) ownerTokens; // number of created tokens owned and ERC20 contract address, referenced by owner address\n    mapping(address => address[]) tokenCount; // Number of token contracts owned\n\n    // Structs\n    struct Token {\n        string name; // Name of token\n        string symbol; // Symbol of token\n        uint256 decimal; // Decimals in token\n        uint256 supply; // Total token supply\n        address payable owner; // web3 wallet address of token submitter\n        uint256 tokenId; // Token id number - increments on token creation\n        string tokenDesc; // Description of token project\n        string assetType; // Type of asset being tokenized\n        string assetId; // Asset ID if any (Registration number for example)\n        bool holderLimit; // Is there a limit to the number of addresses allowed to hold the token\n        uint256 maxHolders; // Maximum number of holders allowed (optional)\n        //      bool restrictedHolders; // Can anyone hold the tokens or is it restricted to verified investors\n        bool privateVerificationList; // Should the token use private's verification list or the owners'\n        bool ownerVerificationList; // Is the owner using their own verification list\n        string tokenURI; //A URI that has the metadata of the token\n    }\n}\n\ncontract AddedStorage {\n    //Whatever variable you want to add\n    uint256 public newVariable;\n}\n\ncontract UpdatedAssetTokenization is\n    Upgradeable,\n    InitializableOwnable,\n    AssetTokenizationStorage,\n    AddedStorage,\n    InitializeInterface\n{\n    // initializes (works like a constructor)\n    function initialize(address _owner) external {\n        super.initialize();\n        InitializableOwnable.initializeOwnable(_owner);\n        contractOwner = address(0xfCfA3389103E766aaC000CBBD2eF9dE387A42e8d);\n        decimal = 18;\n        tokenId = 0;\n        creationFee = (1 ether) / 4;\n    }\n\n    // Events\n    event TokenCreated(\n        uint256 tokenId,\n        string _name,\n        string _symbol,\n        uint256 _supply,\n        address _owner,\n        string tokenURI\n    );\n\n    function aNewFunction() public {\n        //do something\n        newVariable = 100;\n    }\n\n    // Methods\n    function tokenizeAsset(\n        string memory _name,\n        string memory _symbol,\n        uint256 _supply,\n        address payable _tokenOwner,\n        string memory _tokenDesc,\n        string memory _assetType,\n        string memory _assetId,\n        bool _holderLimit,\n        uint256 _maxHolders,\n        //    bool _restrictedHolders,\n        bool _privateVerificationList,\n        bool _ownerVerificationList,\n        string memory _tokenURI\n    ) public payable returns (bool) {\n        //require(msg.value == creationFee);\n        Token memory token = Token(\n            _name,\n            _symbol,\n            decimal,\n            _supply,\n            _tokenOwner,\n            tokenId,\n            _tokenDesc,\n            _assetType,\n            _assetId,\n            _holderLimit,\n            _maxHolders,\n            //          _restrictedHolders,\n            _privateVerificationList,\n            _ownerVerificationList,\n            _tokenURI\n        );\n        tokenDetails[token.tokenId] = token;\n        //  contractOwner.transfer(msg.value);\n\n        Tokenize tokenized = new Tokenize(\n            token.name,\n            token.symbol,\n            token.decimal,\n            token.owner,\n            token.supply,\n            token.tokenURI,\n            token.privateVerificationList,\n            verificationListAddress,\n            token.ownerVerificationList,\n            contractOwner\n        );\n        //If they want to use private verification list then whitleist the owner\n        if (token.privateVerificationList == true)\n            IVerificationList(verificationListAddress).addWhiteList(\n                token.owner\n            );\n        tokenAddress[token.tokenId] = address(tokenized);\n        tokenOwner[token.tokenId] = address(token.owner);\n        tokenCount[token.owner].push(address(tokenized));\n        tokenContract[address(tokenized)] = token;\n        ownerTokens[token.owner][token.tokenId] = tokenAddress[token.tokenId];\n        tokenId += 1;\n        emit TokenCreated(\n            token.tokenId,\n            token.name,\n            token.symbol,\n            token.supply,\n            token.owner,\n            token.tokenURI\n        );\n        //return(tokenAddress[token.tokenId]);\n        return (true);\n    }\n\n    function enterDetails(address _which, string memory _ownerDetails)\n        public\n        onlyOwner\n        returns (bool)\n    {\n        //We need to allow access to this method to contractOwner only\n        ownerInfo[_which] = _ownerDetails;\n        return (true);\n    }\n\n    function updateVerificationListAddress(address _verificationListAddress)\n        public\n        onlyOwner\n    {\n        verificationListAddress = _verificationListAddress;\n    }\n\n    function getTokenAddresses(address _owner)\n        public\n        view\n        returns (\n            address[] memory // Should this also be restricted to contractOwner?\n        )\n    {\n        return (tokenCount[_owner]);\n    }\n\n    function getTokenAddress(address _owner, uint256 _id)\n        public\n        view\n        returns (address)\n    {\n        return (ownerTokens[_owner][_id]);\n    }\n}\n",
  "sourcePath": "/home/ay/Asset-Tokenization/contracts/test/UpdatedSelfTokenizer.sol",
  "compiler": {
    "name": "solc",
    "version": "0.5.16+commit.9c3226ce.Emscripten.clang"
  },
  "schemaVersion": "3.2.5",
  "updatedAt": "2021-02-12T10:19:52.521Z",
  "devdoc": {
    "methods": {}
  },
  "userdoc": {
    "methods": {}
  }
}