{
  "contractName": "Authorizable",
  "abi": [
    {
      "anonymous": false,
      "inputs": [
        {
          "indexed": true,
          "internalType": "address",
          "name": "previousOwner",
          "type": "address"
        },
        {
          "indexed": true,
          "internalType": "address",
          "name": "newOwner",
          "type": "address"
        }
      ],
      "name": "OwnershipTransferred",
      "type": "event"
    },
    {
      "constant": true,
      "inputs": [
        {
          "internalType": "address",
          "name": "",
          "type": "address"
        }
      ],
      "name": "authorized",
      "outputs": [
        {
          "internalType": "bool",
          "name": "",
          "type": "bool"
        }
      ],
      "payable": false,
      "stateMutability": "view",
      "type": "function"
    },
    {
      "constant": true,
      "inputs": [],
      "name": "owner",
      "outputs": [
        {
          "internalType": "address",
          "name": "",
          "type": "address"
        }
      ],
      "payable": false,
      "stateMutability": "view",
      "type": "function"
    },
    {
      "constant": false,
      "inputs": [
        {
          "internalType": "address",
          "name": "newOwner",
          "type": "address"
        }
      ],
      "name": "transferOwnership",
      "outputs": [],
      "payable": false,
      "stateMutability": "nonpayable",
      "type": "function"
    },
    {
      "constant": false,
      "inputs": [
        {
          "internalType": "address",
          "name": "_toAdd",
          "type": "address"
        }
      ],
      "name": "addAuthorized",
      "outputs": [],
      "payable": false,
      "stateMutability": "nonpayable",
      "type": "function"
    },
    {
      "constant": false,
      "inputs": [
        {
          "internalType": "address",
          "name": "_toRemove",
          "type": "address"
        }
      ],
      "name": "removeAuthorized",
      "outputs": [],
      "payable": false,
      "stateMutability": "nonpayable",
      "type": "function"
    },
    {
      "constant": true,
      "inputs": [
        {
          "internalType": "address",
          "name": "_toCheck",
          "type": "address"
        }
      ],
      "name": "checkAuthorization",
      "outputs": [
        {
          "internalType": "bool",
          "name": "",
          "type": "bool"
        }
      ],
      "payable": false,
      "stateMutability": "view",
      "type": "function"
    }
  ],
  "bytecode": "0x6080604081905260008054600160a060020a0319163317808255600160a060020a0316917f8be0079c531659141344cd1fd0a4f28419497f9722a3daafe3b4186f6b6457e0908290a3610348806100576000396000f3fe608060405234801561001057600080fd5b506004361061007e577c01000000000000000000000000000000000000000000000000000000006000350463485d7d94811461008357806389f4dd47146100ab5780638da5cb5b146100e5578063b918161114610109578063cf1c316a1461012f578063f2fde38b14610155575b600080fd5b6100a96004803603602081101561009957600080fd5b5035600160a060020a031661017b565b005b6100d1600480360360208110156100c157600080fd5b5035600160a060020a03166101dc565b604080519115158252519081900360200190f35b6100ed610213565b60408051600160a060020a039092168252519081900360200190f35b6100d16004803603602081101561011f57600080fd5b5035600160a060020a0316610222565b6100a96004803603602081101561014557600080fd5b5035600160a060020a0316610237565b6100a96004803603602081101561016b57600080fd5b5035600160a060020a0316610288565b600054600160a060020a0316331461019257600080fd5b600160a060020a0381166101a557600080fd5b600160a060020a0381163314156101bb57600080fd5b600160a060020a03166000908152600160205260409020805460ff19169055565b60008054600160a060020a031633146101f457600080fd5b50600160a060020a031660009081526001602052604090205460ff1690565b600054600160a060020a031681565b60016020526000908152604090205460ff1681565b600054600160a060020a0316331461024e57600080fd5b600160a060020a03811661026157600080fd5b600160a060020a03166000908152600160208190526040909120805460ff19169091179055565b600054600160a060020a0316331461029f57600080fd5b600160a060020a038116156103105760008054604051600160a060020a03808516939216917f8be0079c531659141344cd1fd0a4f28419497f9722a3daafe3b4186f6b6457e091a36000805473ffffffffffffffffffffffffffffffffffffffff1916600160a060020a0383161790555b5056fea265627a7a723158202f9dde985dceb6042906bbc52e07132ac8c879eab5fd0c2340c2f7f0854f084d64736f6c63430005100032",
  "source": "/**\n * @file VerificationList.sol\n * @author https://github.com/amityadav0\n *\n * contract to store whitelist and blacklist details\n */\n\npragma solidity >=0.5.0 <0.6.0;\n\nimport \"./Ownable.sol\";\n\ncontract Authorizable is Ownable {\n    mapping(address => bool) public authorized;\n\n    modifier onlyAuthorized() {\n        require(\n            authorized[msg.sender] || owner == msg.sender,\n            \"ERR_ONLY_ATHORIZED_ALLOWED\"\n        );\n        _;\n    }\n\n    function addAuthorized(address _toAdd) public onlyOwner {\n        require(_toAdd != address(0));\n        authorized[_toAdd] = true;\n    }\n\n    function removeAuthorized(address _toRemove) public onlyOwner {\n        require(_toRemove != address(0));\n        require(_toRemove != msg.sender);\n        authorized[_toRemove] = false;\n    }\n\n    function checkAuthorization(address _toCheck)\n        public\n        view\n        onlyOwner\n        returns (bool)\n    {\n        return authorized[_toCheck];\n    }\n}\n\ncontract VerificationList is Authorizable {\n    // Getters to allow the same blacklist/whitelist to be used by other contracts\n    function getBlackListStatus(address _maker)\n        public\n        view\n        onlyAuthorized\n        returns (bool)\n    {\n        return isBlackListed[_maker];\n    }\n\n    function getWhiteListStatus(address _maker)\n        public\n        view\n        onlyAuthorized\n        returns (bool)\n    {\n        return isWhiteListed[_maker];\n    }\n\n    function getOwner() external view returns (address) {\n        return owner;\n    }\n\n    mapping(address => bool) public isBlackListed;\n    mapping(address => bool) public isWhiteListed;\n\n    function addBlackList(address _evilUser) public onlyAuthorized {\n        require(_evilUser != address(0));\n        require(_evilUser != owner);\n        isBlackListed[_evilUser] = true;\n        if (isWhiteListed[_evilUser]) {\n            isWhiteListed[_evilUser] = false;\n            emit RemovedWhiteList(_evilUser);\n        }\n        emit AddedBlackList(_evilUser);\n    }\n\n    function removeBlackList(address _clearedUser) public onlyAuthorized {\n        isBlackListed[_clearedUser] = false;\n        emit RemovedBlackList(_clearedUser);\n    }\n\n    function addWhiteList(address _verifiedUser) public onlyAuthorized {\n        require(!isBlackListed[_verifiedUser]);\n        isWhiteListed[_verifiedUser] = true;\n        emit AddedWhiteList(_verifiedUser);\n    }\n\n    function removeWhiteList(address _exUser) public onlyAuthorized {\n        isWhiteListed[_exUser] = false;\n        emit RemovedWhiteList(_exUser);\n    }\n\n    event DestroyedBlackFunds(address _blackListedUser, uint256 _balance);\n\n    event AddedBlackList(address _user);\n\n    event RemovedBlackList(address _user);\n\n    event AddedWhiteList(address _user);\n\n    event RemovedWhiteList(address _user);\n}\n",
  "sourcePath": "/home/ay/Asset-Tokenization/contracts/VerificationList.sol",
  "compiler": {
    "name": "solc",
    "version": "0.5.16+commit.9c3226ce.Emscripten.clang"
  },
  "schemaVersion": "3.2.5",
  "updatedAt": "2021-02-12T10:19:52.621Z",
  "devdoc": {
    "methods": {}
  },
  "userdoc": {
    "methods": {}
  }
}