{
  "contractName": "UpdatedAssetTokenization",
  "abi": [
    {
      "anonymous": false,
      "inputs": [
        {
          "indexed": true,
          "internalType": "address",
          "name": "previousOwner",
          "type": "address"
        },
        {
          "indexed": true,
          "internalType": "address",
          "name": "newOwner",
          "type": "address"
        }
      ],
      "name": "OwnershipTransferred",
      "type": "event"
    },
    {
      "anonymous": false,
      "inputs": [
        {
          "indexed": false,
          "internalType": "uint256",
          "name": "tokenId",
          "type": "uint256"
        },
        {
          "indexed": false,
          "internalType": "string",
          "name": "_name",
          "type": "string"
        },
        {
          "indexed": false,
          "internalType": "string",
          "name": "_symbol",
          "type": "string"
        },
        {
          "indexed": false,
          "internalType": "uint256",
          "name": "_supply",
          "type": "uint256"
        },
        {
          "indexed": false,
          "internalType": "address",
          "name": "_owner",
          "type": "address"
        },
        {
          "indexed": false,
          "internalType": "string",
          "name": "tokenURI",
          "type": "string"
        }
      ],
      "name": "TokenCreated",
      "type": "event"
    },
    {
      "payable": true,
      "stateMutability": "payable",
      "type": "fallback"
    },
    {
      "constant": true,
      "inputs": [],
      "name": "contractOwner",
      "outputs": [
        {
          "internalType": "address payable",
          "name": "",
          "type": "address"
        }
      ],
      "payable": false,
      "stateMutability": "view",
      "type": "function"
    },
    {
      "constant": true,
      "inputs": [],
      "name": "creationFee",
      "outputs": [
        {
          "internalType": "uint256",
          "name": "",
          "type": "uint256"
        }
      ],
      "payable": false,
      "stateMutability": "view",
      "type": "function"
    },
    {
      "constant": true,
      "inputs": [],
      "name": "decimal",
      "outputs": [
        {
          "internalType": "uint8",
          "name": "",
          "type": "uint8"
        }
      ],
      "payable": false,
      "stateMutability": "view",
      "type": "function"
    },
    {
      "constant": true,
      "inputs": [],
      "name": "implementation",
      "outputs": [
        {
          "internalType": "address",
          "name": "",
          "type": "address"
        }
      ],
      "payable": false,
      "stateMutability": "view",
      "type": "function"
    },
    {
      "constant": true,
      "inputs": [],
      "name": "newVariable",
      "outputs": [
        {
          "internalType": "uint256",
          "name": "",
          "type": "uint256"
        }
      ],
      "payable": false,
      "stateMutability": "view",
      "type": "function"
    },
    {
      "constant": true,
      "inputs": [],
      "name": "owner",
      "outputs": [
        {
          "internalType": "address",
          "name": "",
          "type": "address"
        }
      ],
      "payable": false,
      "stateMutability": "view",
      "type": "function"
    },
    {
      "constant": true,
      "inputs": [],
      "name": "registry",
      "outputs": [
        {
          "internalType": "contract IRegistry",
          "name": "",
          "type": "address"
        }
      ],
      "payable": false,
      "stateMutability": "view",
      "type": "function"
    },
    {
      "constant": true,
      "inputs": [],
      "name": "tokenId",
      "outputs": [
        {
          "internalType": "uint256",
          "name": "",
          "type": "uint256"
        }
      ],
      "payable": false,
      "stateMutability": "view",
      "type": "function"
    },
    {
      "constant": false,
      "inputs": [
        {
          "internalType": "address",
          "name": "newOwner",
          "type": "address"
        }
      ],
      "name": "transferOwnership",
      "outputs": [],
      "payable": false,
      "stateMutability": "nonpayable",
      "type": "function"
    },
    {
      "constant": true,
      "inputs": [],
      "name": "verificationListAddress",
      "outputs": [
        {
          "internalType": "address",
          "name": "",
          "type": "address"
        }
      ],
      "payable": false,
      "stateMutability": "view",
      "type": "function"
    },
    {
      "constant": true,
      "inputs": [],
      "name": "initialize",
      "outputs": [],
      "payable": false,
      "stateMutability": "view",
      "type": "function"
    },
    {
      "constant": false,
      "inputs": [
        {
          "internalType": "address",
          "name": "_owner",
          "type": "address"
        }
      ],
      "name": "initialize",
      "outputs": [],
      "payable": false,
      "stateMutability": "nonpayable",
      "type": "function"
    },
    {
      "constant": false,
      "inputs": [],
      "name": "aNewFunction",
      "outputs": [],
      "payable": false,
      "stateMutability": "nonpayable",
      "type": "function"
    },
    {
      "constant": false,
      "inputs": [
        {
          "internalType": "string",
          "name": "_name",
          "type": "string"
        },
        {
          "internalType": "string",
          "name": "_symbol",
          "type": "string"
        },
        {
          "internalType": "uint256",
          "name": "_supply",
          "type": "uint256"
        },
        {
          "internalType": "address payable",
          "name": "_tokenOwner",
          "type": "address"
        },
        {
          "internalType": "string",
          "name": "_tokenDesc",
          "type": "string"
        },
        {
          "internalType": "string",
          "name": "_assetType",
          "type": "string"
        },
        {
          "internalType": "string",
          "name": "_assetId",
          "type": "string"
        },
        {
          "internalType": "bool",
          "name": "_holderLimit",
          "type": "bool"
        },
        {
          "internalType": "uint256",
          "name": "_maxHolders",
          "type": "uint256"
        },
        {
          "internalType": "bool",
          "name": "_privateVerificationList",
          "type": "bool"
        },
        {
          "internalType": "bool",
          "name": "_ownerVerificationList",
          "type": "bool"
        },
        {
          "internalType": "string",
          "name": "_tokenURI",
          "type": "string"
        }
      ],
      "name": "tokenizeAsset",
      "outputs": [
        {
          "internalType": "bool",
          "name": "",
          "type": "bool"
        }
      ],
      "payable": true,
      "stateMutability": "payable",
      "type": "function"
    },
    {
      "constant": false,
      "inputs": [
        {
          "internalType": "address",
          "name": "_which",
          "type": "address"
        },
        {
          "internalType": "string",
          "name": "_ownerDetails",
          "type": "string"
        }
      ],
      "name": "enterDetails",
      "outputs": [
        {
          "internalType": "bool",
          "name": "",
          "type": "bool"
        }
      ],
      "payable": false,
      "stateMutability": "nonpayable",
      "type": "function"
    },
    {
      "constant": false,
      "inputs": [
        {
          "internalType": "address",
          "name": "_verificationListAddress",
          "type": "address"
        }
      ],
      "name": "updateVerificationListAddress",
      "outputs": [],
      "payable": false,
      "stateMutability": "nonpayable",
      "type": "function"
    },
    {
      "constant": true,
      "inputs": [
        {
          "internalType": "address",
          "name": "_owner",
          "type": "address"
        }
      ],
      "name": "getTokenAddresses",
      "outputs": [
        {
          "internalType": "address[]",
          "name": "",
          "type": "address[]"
        }
      ],
      "payable": false,
      "stateMutability": "view",
      "type": "function"
    },
    {
      "constant": true,
      "inputs": [
        {
          "internalType": "address",
          "name": "_owner",
          "type": "address"
        },
        {
          "internalType": "uint256",
          "name": "_id",
          "type": "uint256"
        }
      ],
      "name": "getTokenAddress",
      "outputs": [
        {
          "internalType": "address",
          "name": "",
          "type": "address"
        }
      ],
      "payable": false,
      "stateMutability": "view",
      "type": "function"
    }
  ],
  "bytecode": "0x608060405234801561001057600080fd5b50613aaf806100206000396000f3fe6080604052600436106200013f576000357c0100000000000000000000000000000000000000000000000000000000900480638da5cb5b11620000c0578063ce606ee0116200008a578063ce606ee0146200085c578063da8dfc5a1462000874578063daecae6314620008ab578063dce0b4e414620008c3578063f2fde38b14620008db576200013f565b80638da5cb5b146200046357806392de83c8146200047b578063a5d052df146200080d578063c4d66de81462000825576200013f565b80635fdbcc1e116200010e5780635fdbcc1e146200030d57806376809ce314620003eb5780637b10399914620004195780638129fc1c14620004315780638d7a72f3146200044b576200013f565b80631471e9e114620001e957806317d70f7c146200024257806330a5e2a1146200026c5780635c60da1b14620002f5575b60006200014b62000912565b9050600160a060020a038116620001c357604080517f08c379a000000000000000000000000000000000000000000000000000000000815260206004820152601660248201527f4552525f494d504c454d454e5445494f4e5f5a45524f00000000000000000000604482015290519081900360640190fd5b60405136600082376000803683855af43d806000843e818015620001e5578184f35b8184fd5b348015620001f657600080fd5b5062000226600480360360408110156200020f57600080fd5b50600160a060020a03813516906020013562000922565b60408051600160a060020a039092168252519081900360200190f35b3480156200024f57600080fd5b506200025a6200094a565b60408051918252519081900360200190f35b3480156200027957600080fd5b50620002a3600480360360208110156200029257600080fd5b5035600160a060020a031662000950565b60408051602080825283518183015283519192839290830191858101910280838360005b83811015620002e1578181015183820152602001620002c7565b505050509050019250505060405180910390f35b3480156200030257600080fd5b506200022662000912565b3480156200031a57600080fd5b50620003d7600480360360408110156200033357600080fd5b600160a060020a0382351691908101906040810160208201356401000000008111156200035f57600080fd5b8201836020820111156200037257600080fd5b803590602001918460018302840111640100000000831117156200039557600080fd5b91908080601f016020809104026020016040519081016040528093929190818152602001838380828437600092019190915250929550620009c8945050505050565b604080519115158252519081900360200190f35b348015620003f857600080fd5b506200040362000a18565b6040805160ff9092168252519081900360200190f35b3480156200042657600080fd5b506200022662000a21565b3480156200043e57600080fd5b506200044962000a30565b005b3480156200045857600080fd5b506200025a62000aac565b3480156200047057600080fd5b506200022662000ab2565b620003d760048036036101808110156200049457600080fd5b810190602081018135640100000000811115620004b057600080fd5b820183602082011115620004c357600080fd5b80359060200191846001830284011164010000000083111715620004e657600080fd5b91908080601f01602080910402602001604051908101604052809392919081815260200183838082843760009201919091525092959493602081019350359150506401000000008111156200053a57600080fd5b8201836020820111156200054d57600080fd5b803590602001918460018302840111640100000000831117156200057057600080fd5b91908080601f0160208091040260200160405190810160405280939291908181526020018383808284376000920191909152509295843595600160a060020a0360208701351695919450925060608101915060400135640100000000811115620005d957600080fd5b820183602082011115620005ec57600080fd5b803590602001918460018302840111640100000000831117156200060f57600080fd5b91908080601f01602080910402602001604051908101604052809392919081815260200183838082843760009201919091525092959493602081019350359150506401000000008111156200066357600080fd5b8201836020820111156200067657600080fd5b803590602001918460018302840111640100000000831117156200069957600080fd5b91908080601f0160208091040260200160405190810160405280939291908181526020018383808284376000920191909152509295949360208101935035915050640100000000811115620006ed57600080fd5b8201836020820111156200070057600080fd5b803590602001918460018302840111640100000000831117156200072357600080fd5b91908080601f016020809104026020016040519081016040528093929190818152602001838380828437600092019190915250929584351515956020860135956040810135151595506060810135151594509192509060a0810190608001356401000000008111156200079557600080fd5b820183602082011115620007a857600080fd5b80359060200191846001830284011164010000000083111715620007cb57600080fd5b91908080601f01602080910402602001604051908101604052809392919081815260200183838082843760009201919091525092955062000ac1945050505050565b3480156200081a57600080fd5b506200022662001355565b3480156200083257600080fd5b5062000449600480360360208110156200084b57600080fd5b5035600160a060020a031662001364565b3480156200086957600080fd5b5062000226620013c0565b3480156200088157600080fd5b5062000449600480360360208110156200089a57600080fd5b5035600160a060020a0316620013cf565b348015620008b857600080fd5b506200044962001409565b348015620008d057600080fd5b506200025a62001410565b348015620008e857600080fd5b5062000449600480360360208110156200090157600080fd5b5035600160a060020a031662001416565b600154600160a060020a03165b90565b600160a060020a039182166000908152600d6020908152604080832093835292905220541690565b60045481565b600160a060020a0381166000908152600e6020908152604091829020805483518184028101840190945280845260609392830182828015620009bc57602002820191906000526020600020905b8154600160a060020a031681526001909101906020018083116200099d575b50505050509050919050565b600254600090600160a060020a03163314620009e357600080fd5b600160a060020a0383166000908152600c60209081526040909120835162000a0e92850190620014e9565b5060019392505050565b60055460ff1681565b600054600160a060020a031681565b600054600160a060020a0316331462000aaa57604080517f08c379a000000000000000000000000000000000000000000000000000000000815260206004820152601c60248201527f4552525f4f4e4c595f524547495354524552595f43414e5f43414c4c00000000604482015290519081900360640190fd5b565b600f5481565b600254600160a060020a031681565b600062000acd6200156e565b50604080516101c0810182528e815260208082018f905260055460ff1682840152606082018e9052600160a060020a038d16608083015260045460a0830181905260c083018d905260e083018c905261010083018b905289151561012084015261014083018990528715156101608401528615156101808401526101a083018690526000908152600a825292909220815180519293849362000b739284920190620014e9565b50602082810151805162000b8e9260018501920190620014e9565b5060408201516002820155606082015160038201556080820151600482018054600160a060020a031916600160a060020a0390921691909117905560a0820151600582015560c0820151805162000bf0916006840191602090910190620014e9565b5060e0820151805162000c0e916007840191602090910190620014e9565b50610100820151805162000c2d916008840191602090910190620014e9565b5061012082015160098201805491151560ff19928316179055610140830151600a830155610160830151600b8301805461018086015115156101000261ff00199315159190941617919091169190911790556101a0820151805162000c9d91600c840191602090910190620014e9565b50905050600081600001518260200151836040015184608001518560600151866101a00151876101600151600760009054906101000a9004600160a060020a0316896101800151600360009054906101000a9004600160a060020a031660405162000d0890620015ec565b8080602001806020018b81526020018a600160a060020a0316600160a060020a03168152602001898152602001806020018815151515815260200187600160a060020a0316600160a060020a031681526020018615151515815260200185600160a060020a0316600160a060020a0316815260200184810384528e818151815260200191508051906020019080838360005b8381101562000db457818101518382015260200162000d9a565b50505050905090810190601f16801562000de25780820380516001836020036101000a031916815260200191505b5084810383528d5181528d516020918201918f019080838360005b8381101562000e1757818101518382015260200162000dfd565b50505050905090810190601f16801562000e455780820380516001836020036101000a031916815260200191505b5084810382528951815289516020918201918b019080838360005b8381101562000e7a57818101518382015260200162000e60565b50505050905090810190601f16801562000ea85780820380516001836020036101000a031916815260200191505b509d5050505050505050505050505050604051809103906000f08015801562000ed5573d6000803e3d6000fd5b509050816101600151151560011515141562000f72576007546080830151604080517fe7cd4a04000000000000000000000000000000000000000000000000000000008152600160a060020a0392831660048201529051919092169163e7cd4a0491602480830192600092919082900301818387803b15801562000f5857600080fd5b505af115801562000f6d573d6000803e3d6000fd5b505050505b60a08201805160009081526009602090815260408083208054600160a060020a0319908116600160a060020a038881169182179093556080890180519751875260088652848720805484169885169890981790975595519091168452600e8352818420805460018101825590855283852001805490911685179055928252600b81529190208351805185936200100d928492910190620014e9565b506020828101518051620010289260018501920190620014e9565b5060408201516002820155606082015160038201556080820151600482018054600160a060020a031916600160a060020a0390921691909117905560a0820151600582015560c082015180516200108a916006840191602090910190620014e9565b5060e08201518051620010a8916007840191602090910190620014e9565b506101008201518051620010c7916008840191602090910190620014e9565b5061012082015160098201805491151560ff19928316179055610140830151600a830155610160830151600b8301805461018086015115156101000261ff00199315159190941617919091169190911790556101a082015180516200113791600c840191602090910190620014e9565b50505060a0808301805160009081526009602090815260408083205460808089018051600160a060020a039081168752600d86528487208851885286528487208054600160a060020a0319169482169490941790935560048054600101905595518951858b01516060808d015199516101a08e015188518681529283018c90529681169582019590955260c081890181815284519183019190915283517f952ce628b8fd8fda5fce423e77460dbd783792441d5b017771190b0bc4ff9b609c959b949a9399949896979692959194928601939186019260e0870192908c0191908190849084905b83811015620012385781810151838201526020016200121e565b50505050905090810190601f168015620012665780820380516001836020036101000a031916815260200191505b5084810383528851815288516020918201918a019080838360005b838110156200129b57818101518382015260200162001281565b50505050905090810190601f168015620012c95780820380516001836020036101000a031916815260200191505b50848103825285518152855160209182019187019080838360005b83811015620012fe578181015183820152602001620012e4565b50505050905090810190601f1680156200132c5780820380516001836020036101000a031916815260200191505b50995050505050505050505060405180910390a15060019e9d5050505050505050505050505050565b600754600160a060020a031681565b6200136e62000a30565b620013798162001497565b5060038054600160a060020a03191673fcfa3389103e766aac000cbbd2ef9de387a42e8d1790556005805460ff1916601217905560006004556703782dace9d90000600655565b600354600160a060020a031681565b600254600160a060020a03163314620013e757600080fd5b60078054600160a060020a031916600160a060020a0392909216919091179055565b6064600f55565b60065481565b600254600160a060020a031633146200142e57600080fd5b600160a060020a038116156200149457600254604051600160a060020a038084169216907f8be0079c531659141344cd1fd0a4f28419497f9722a3daafe3b4186f6b6457e090600090a360028054600160a060020a031916600160a060020a0383161790555b50565b60028054600160a060020a031916600160a060020a0383811691909117918290556040519116906000907f8be0079c531659141344cd1fd0a4f28419497f9722a3daafe3b4186f6b6457e0908290a350565b828054600181600116156101000203166002900490600052602060002090601f016020900481019282601f106200152c57805160ff19168380011785556200155c565b828001600101855582156200155c579182015b828111156200155c5782518255916020019190600101906200153f565b506200156a929150620015fa565b5090565b604051806101c00160405280606081526020016060815260200160008152602001600081526020016000600160a060020a031681526020016000815260200160608152602001606081526020016060815260200160001515815260200160008152602001600015158152602001600015158152602001606081525090565b612463806200161883390190565b6200091f91905b808211156200156a57600081556001016200160156fe6080604052601460038190556004556006805460a060020a60ff02191690553480156200002b57600080fd5b50604051620024633803806200246383398181016040526101408110156200005257600080fd5b81019080805160405193929190846401000000008211156200007357600080fd5b9083019060208201858111156200008957600080fd5b8251640100000000811182820188101715620000a457600080fd5b82525081516020918201929091019080838360005b83811015620000d3578181015183820152602001620000b9565b50505050905090810190601f168015620001015780820380516001836020036101000a031916815260200191505b50604052602001805160405193929190846401000000008211156200012557600080fd5b9083019060208201858111156200013b57600080fd5b82516401000000008111828201881017156200015657600080fd5b82525081516020918201929091019080838360005b83811015620001855781810151838201526020016200016b565b50505050905090810190601f168015620001b35780820380516001836020036101000a031916815260200191505b50604081815260208301519083015160608401516080909401805192969195919284640100000000821115620001e857600080fd5b908301906020820185811115620001fe57600080fd5b82516401000000008111828201881017156200021957600080fd5b82525081516020918201929091019080838360005b83811015620002485781810151838201526020016200022e565b50505050905090810190601f168015620002765780820380516001836020036101000a031916815260200191505b506040818152602083015190830151606084015160809094015160068054600160a060020a031916600160a060020a038c81169190911791829055939750919550928992839283929116906000907f8be0079c531659141344cd1fd0a4f28419497f9722a3daafe3b4186f6b6457e0908290a35050620003058162000412640100000000026401000000009004565b5060028054600160a060020a031916600160a060020a038316179055600086905589516200033b9060099060208d019062000494565b5088516200035190600a9060208c019062000494565b50600b88905560008054600160a060020a03891682526001602090815260409092205585516200038891600d919088019062000494565b50600e8054600c8054600160a060020a031916600160a060020a038781169190911790915560ff199091168615151761ff0019166101008515150217909155600080546040805191825251928a16927fddf252ad1be2c89b69c2b068fc378daa952ba7f163c4a11628f55a4df523b3ef916020908290030190a35050505050505050505062000539565b600160a060020a03811660009081526007602052604090205460ff16156200043957600080fd5b600160a060020a038116600081815260086020908152604091829020805460ff19166001179055815192835290517f6a581be2ac3ac6ac56dcb684dac5de71e454f0cf9fe8d8d3742b17b1bc24a15d9281900390910190a150565b828054600181600116156101000203166002900490600052602060002090601f016020900481019282601f10620004d757805160ff191683800117855562000507565b8280016001018555821562000507579182015b8281111562000507578251825591602001919060010190620004ea565b506200051592915062000519565b5090565b6200053691905b8082111562000515576000815560010162000520565b90565b611f1a80620005496000396000f3fe608060405234801561001057600080fd5b506004361061020d576000357c0100000000000000000000000000000000000000000000000000000000900480636a74464f1161012c578063afb5495e116100bf578063e5b5019a1161008e578063e5b5019a14610587578063e68c22d61461058f578063e6a5ba00146105b5578063f2fde38b146105db5761020d565b8063afb5495e1461050e578063cc872b6614610534578063dd62ed3e14610551578063dd644f721461057f5761020d565b80638456cb59116100fb5780638456cb59146104ca5780638da5cb5b146104d257806395d89b41146104da578063a9059cbb146104e25761020d565b80636a74464f1461043457806370a082311461045a5780638288ea6514610480578063835a2f2b146104a45761020d565b8063313ce567116101a45780633f4ba83a116101735780633f4ba83a146103d957806359ded210146103e15780635c658165146103fe5780635c975abb1461042c5761020d565b8063313ce567146103b957806335390714146103c15780633c130d90146103c95780633eaaf86b146103d15761020d565b8063190b8fe8116101e0578063190b8fe81461031157806323b872dd1461033757806327e235e31461036d57806328fc4c20146103935761020d565b806306fdde0314610212578063094e67a91461028f578063095ea7b3146102c957806318160ddd146102f7575b600080fd5b61021a610601565b6040805160208082528351818301528351919283929083019185019080838360005b8381101561025457818101518382015260200161023c565b50505050905090810190601f1680156102815780820380516001836020036101000a031916815260200191505b509250505060405180910390f35b6102b5600480360360208110156102a557600080fd5b5035600160a060020a031661068f565b604080519115158252519081900360200190f35b6102f5600480360360408110156102df57600080fd5b50600160a060020a0381351690602001356106ad565b005b6102ff6106cc565b60408051918252519081900360200190f35b6102f56004803603602081101561032757600080fd5b5035600160a060020a03166106d2565b6102f56004803603606081101561034d57600080fd5b50600160a060020a038135811691602081013590911690604001356107e2565b6102ff6004803603602081101561038357600080fd5b5035600160a060020a0316610d4a565b6102f5600480360360208110156103a957600080fd5b5035600160a060020a0316610d5c565b6102ff610dcb565b6102ff610dd1565b61021a610dd7565b6102ff610e32565b6102f5610e38565b6102f5600480360360208110156103f757600080fd5b5035610eae565b6102ff6004803603604081101561041457600080fd5b50600160a060020a0381358116916020013516610f00565b6102b5610f1d565b6102f56004803603602081101561044a57600080fd5b5035600160a060020a0316610f2d565b6102ff6004803603602081101561047057600080fd5b5035600160a060020a0316610f50565b610488610f61565b60408051600160a060020a039092168252519081900360200190f35b6102b5600480360360208110156104ba57600080fd5b5035600160a060020a0316610f70565b6102f5610f8e565b61048861100b565b61021a61101a565b6102f5600480360360408110156104f857600080fd5b50600160a060020a038135169060200135611075565b6102f56004803603602081101561052457600080fd5b5035600160a060020a03166115e0565b6102f56004803603602081101561054a57600080fd5b503561164f565b6102ff6004803603604081101561056757600080fd5b50600160a060020a03813581169160200135166116fc565b6102ff61170f565b6102ff611715565b6102b5600480360360208110156105a557600080fd5b5035600160a060020a031661171b565b6102b5600480360360208110156105cb57600080fd5b5035600160a060020a0316611730565b6102f5600480360360208110156105f157600080fd5b5035600160a060020a0316611745565b6009805460408051602060026001851615610100026000190190941693909304601f810184900484028201840190925281815292918301828280156106875780601f1061065c57610100808354040283529160200191610687565b820191906000526020600020905b81548152906001019060200180831161066a57829003601f168201915b505050505081565b600160a060020a031660009081526008602052604090205460ff1690565b604060443610156106bd57600080fd5b6106c783836117d2565b505050565b60005490565b600654600160a060020a031633146106e957600080fd5b600160a060020a0381166106fc57600080fd5b600654600160a060020a038281169116141561071757600080fd5b600160a060020a0381166000908152600760209081526040808320805460ff19166001179055600890915290205460ff16156107a357600160a060020a038116600081815260086020908152604091829020805460ff19169055815192835290517f78f8b8df688179489e06ca20fe04606adc2b5b4156dc52ca8a372c72caa1adc39281900390910190a15b60408051600160a060020a038316815290517fa6d9ee8161d32d58e5072cd548684026841b387f9ad208a2b53fa6c42d4f65ae9181900360200190a150565b60065460a060020a900460ff16156107f957600080fd5b600e5460ff161515600114801561081d5750600e5460ff6101009091041615156001145b15610acc57600c546040805160e560020a630723eb030281523360048201529051600160a060020a039092169163e47d6060916024808201926020929091908290030181600087803b15801561087257600080fd5b505af1158015610886573d6000803e3d6000fd5b505050506040513d602081101561089c57600080fd5b50511580156109265750600c546040805160e560020a630723eb03028152600160a060020a0385811660048301529151919092169163e47d60609160248083019260209291908290030181600087803b1580156108f857600080fd5b505af115801561090c573d6000803e3d6000fd5b505050506040513d602081101561092257600080fd5b5051155b61092f57600080fd5b600c546040805160e160020a6337c8b87b0281523360048201529051600160a060020a0390921691636f9170f6916024808201926020929091908290030181600087803b15801561097f57600080fd5b505af1158015610993573d6000803e3d6000fd5b505050506040513d60208110156109a957600080fd5b50518015610a315750600c546040805160e160020a6337c8b87b028152600160a060020a03858116600483015291519190921691636f9170f69160248083019260209291908290030181600087803b158015610a0457600080fd5b505af1158015610a18573d6000803e3d6000fd5b505050506040513d6020811015610a2e57600080fd5b50515b610a3a57600080fd5b3360009081526007602052604090205460ff16158015610a735750600160a060020a03821660009081526007602052604090205460ff16155b610a7c57600080fd5b3360009081526008602052604090205460ff168015610ab35750600160a060020a03821660009081526008602052604090205460ff165b610abc57600080fd5b610ac7838383611913565b6106c7565b600e5460ff16151560011415610cf357600c546040805160e560020a630723eb030281523360048201529051600160a060020a039092169163e47d6060916024808201926020929091908290030181600087803b158015610b2c57600080fd5b505af1158015610b40573d6000803e3d6000fd5b505050506040513d6020811015610b5657600080fd5b5051158015610be05750600c546040805160e560020a630723eb03028152600160a060020a0385811660048301529151919092169163e47d60609160248083019260209291908290030181600087803b158015610bb257600080fd5b505af1158015610bc6573d6000803e3d6000fd5b505050506040513d6020811015610bdc57600080fd5b5051155b610be957600080fd5b600c546040805160e160020a6337c8b87b0281523360048201529051600160a060020a0390921691636f9170f6916024808201926020929091908290030181600087803b158015610c3957600080fd5b505af1158015610c4d573d6000803e3d6000fd5b505050506040513d6020811015610c6357600080fd5b50518015610ab35750600c546040805160e160020a6337c8b87b028152600160a060020a03858116600483015291519190921691636f9170f69160248083019260209291908290030181600087803b158015610cbe57600080fd5b505af1158015610cd2573d6000803e3d6000fd5b505050506040513d6020811015610ce857600080fd5b5051610abc57600080fd5b600e5460ff61010090910416151560011415610abc573360009081526007602052604090205460ff16158015610a735750600160a060020a03821660009081526007602052604090205460ff1615610a7c57600080fd5b60016020526000908152604090205481565b600654600160a060020a03163314610d7357600080fd5b600160a060020a038116600081815260076020908152604091829020805460ff19169055815192835290517fceae7c8fbd3ed59a7be5b3a6be56168702d020af37f3c01f4e81f34b48d722e39281900390910190a150565b600b5481565b60045481565b600d805460408051602060026001851615610100026000190190941693909304601f810184900484028201840190925281815292918301828280156106875780601f1061065c57610100808354040283529160200191610687565b60005481565b600654600160a060020a03163314610e4f57600080fd5b60065460a060020a900460ff16610e6557600080fd5b6006805474ff0000000000000000000000000000000000000000191690556040517f7805862f689e2f13df9f062ff482ad3ad112aca9e0847911ed832e158c525b3390600090a1565b600254600160a060020a03163314610ec557600080fd5b60038190556040805182815290517f2696a6358e16692f320e4570c01170fd423f0f4acbc8d0120c42a33e5d2e154a9181900360200190a150565b600560209081526000928352604080842090915290825290205481565b60065460a060020a900460ff1681565b600654600160a060020a03163314610f4457600080fd5b610f4d81611b90565b50565b6000610f5b82611c11565b92915050565b600654600160a060020a031690565b600160a060020a031660009081526007602052604090205460ff1690565b600654600160a060020a03163314610fa557600080fd5b60065460a060020a900460ff1615610fbc57600080fd5b6006805474ff0000000000000000000000000000000000000000191660a060020a1790556040517f6985a02210a168e66602d3235cb6db0e70f92b3ba4d376a33c0f3d9434bff62590600090a1565b600654600160a060020a031681565b600a805460408051602060026001851615610100026000190190941693909304601f810184900484028201840190925281815292918301828280156106875780601f1061065c57610100808354040283529160200191610687565b60065460a060020a900460ff161561108c57600080fd5b600e5460ff16151560011480156110b05750600e5460ff6101009091041615156001145b1561135e57600c546040805160e560020a630723eb030281523360048201529051600160a060020a039092169163e47d6060916024808201926020929091908290030181600087803b15801561110557600080fd5b505af1158015611119573d6000803e3d6000fd5b505050506040513d602081101561112f57600080fd5b50511580156111b95750600c546040805160e560020a630723eb03028152600160a060020a0385811660048301529151919092169163e47d60609160248083019260209291908290030181600087803b15801561118b57600080fd5b505af115801561119f573d6000803e3d6000fd5b505050506040513d60208110156111b557600080fd5b5051155b6111c257600080fd5b600c546040805160e160020a6337c8b87b0281523360048201529051600160a060020a0390921691636f9170f6916024808201926020929091908290030181600087803b15801561121257600080fd5b505af1158015611226573d6000803e3d6000fd5b505050506040513d602081101561123c57600080fd5b505180156112c45750600c546040805160e160020a6337c8b87b028152600160a060020a03858116600483015291519190921691636f9170f69160248083019260209291908290030181600087803b15801561129757600080fd5b505af11580156112ab573d6000803e3d6000fd5b505050506040513d60208110156112c157600080fd5b50515b6112cd57600080fd5b3360009081526007602052604090205460ff161580156113065750600160a060020a03821660009081526007602052604090205460ff16155b61130f57600080fd5b3360009081526008602052604090205460ff1680156113465750600160a060020a03821660009081526008602052604090205460ff165b61134f57600080fd5b6113598282611c2c565b6115dc565b600e5460ff1615156001141561158557600c546040805160e560020a630723eb030281523360048201529051600160a060020a039092169163e47d6060916024808201926020929091908290030181600087803b1580156113be57600080fd5b505af11580156113d2573d6000803e3d6000fd5b505050506040513d60208110156113e857600080fd5b50511580156114725750600c546040805160e560020a630723eb03028152600160a060020a0385811660048301529151919092169163e47d60609160248083019260209291908290030181600087803b15801561144457600080fd5b505af1158015611458573d6000803e3d6000fd5b505050506040513d602081101561146e57600080fd5b5051155b61147b57600080fd5b600c546040805160e160020a6337c8b87b0281523360048201529051600160a060020a0390921691636f9170f6916024808201926020929091908290030181600087803b1580156114cb57600080fd5b505af11580156114df573d6000803e3d6000fd5b505050506040513d60208110156114f557600080fd5b505180156113465750600c546040805160e160020a6337c8b87b028152600160a060020a03858116600483015291519190921691636f9170f69160248083019260209291908290030181600087803b15801561155057600080fd5b505af1158015611564573d6000803e3d6000fd5b505050506040513d602081101561157a57600080fd5b505161134f57600080fd5b600e5460ff6101009091041615156001141561134f573360009081526007602052604090205460ff161580156113065750600160a060020a03821660009081526007602052604090205460ff161561130f57600080fd5b5050565b600654600160a060020a031633146115f757600080fd5b600160a060020a038116600081815260086020908152604091829020805460ff19169055815192835290517f78f8b8df688179489e06ca20fe04606adc2b5b4156dc52ca8a372c72caa1adc39281900390910190a150565b600654600160a060020a0316331461166657600080fd5b6000548181011161167657600080fd5b600654600160a060020a03166000908152600160205260409020548181011161169e57600080fd5b600654600160a060020a0316600090815260016020908152604080832080548501905582548401909255815183815291517fcb8241adb0c3fdb35b70c24ce35c5eb0c17af7431c99f827d44a445ca624176a9281900390910190a150565b60006117088383611dd6565b9392505050565b60035481565b60001981565b60076020526000908152604090205460ff1681565b60086020526000908152604090205460ff1681565b600654600160a060020a0316331461175c57600080fd5b600160a060020a03811615610f4d57600654604051600160a060020a038084169216907f8be0079c531659141344cd1fd0a4f28419497f9722a3daafe3b4186f6b6457e090600090a360068054600160a060020a03831673ffffffffffffffffffffffffffffffffffffffff1990911617905550565b604060443610156117e257600080fd5b81158015906118135750336000908152600560209081526040808320600160a060020a038716845290915290205415155b15611868576040805160e560020a62461bcd02815260206004820152601c60248201527f45524332303a7261636520636f6e646974696f6e206372656174656400000000604482015290519081900360640190fd5b600160a060020a0383166118b05760405160e560020a62461bcd028152600401808060200182810382526022815260200180611e7f6022913960400191505060405180910390fd5b336000818152600560209081526040808320600160a060020a03881680855290835292819020869055805186815290519293927f8c5be1e5ebec7d5bd14f71427d1e84f3dd0314c0f7b2291e5b200ac8c7c3b925929181900390910190a3505050565b6060606436101561192357600080fd5b600160a060020a03841661196b5760405160e560020a62461bcd028152600401808060200182810382526025815260200180611ec16025913960400191505060405180910390fd5b600160a060020a0383166119b35760405160e560020a62461bcd028152600401808060200182810382526023815260200180611e5c6023913960400191505060405180910390fd5b600160a060020a0384166000908152600560209081526040808320338452909152812054600354909190611a02906103e8906119f690879063ffffffff611e0116565b9063ffffffff611e2516565b9050600019821015611a4357611a1e828563ffffffff611e3a16565b600160a060020a03871660009081526005602090815260408083203384529091529020555b6000611a55858363ffffffff611e3a16565b600160a060020a038816600090815260016020526040902054909150611a81908663ffffffff611e3a16565b600160a060020a038089166000908152600160205260408082209390935590881681522054611ab6908263ffffffff611e4c16565b600160a060020a0387166000908152600160205260409020558115611b4e57600254600160a060020a0316600090815260016020526040902054611b00908363ffffffff611e4c16565b60028054600160a060020a039081166000908152600160209081526040918290209490945591548251868152925190821693918b1692600080516020611ea183398151915292908290030190a35b85600160a060020a031687600160a060020a0316600080516020611ea1833981519152836040518082815260200191505060405180910390a350505050505050565b600160a060020a03811660009081526007602052604090205460ff1615611bb657600080fd5b600160a060020a038116600081815260086020908152604091829020805460ff19166001179055815192835290517f6a581be2ac3ac6ac56dcb684dac5de71e454f0cf9fe8d8d3742b17b1bc24a15d9281900390910190a150565b600160a060020a031660009081526001602052604090205490565b60406044361015611c3c57600080fd5b600160a060020a038316611c845760405160e560020a62461bcd028152600401808060200182810382526023815260200180611e5c6023913960400191505060405180910390fd5b6000611ca16103e86119f660035486611e0190919063ffffffff16565b90506000611cb5848363ffffffff611e3a16565b33600090815260016020526040902054909150611cd8908563ffffffff611e3a16565b3360009081526001602052604080822092909255600160a060020a03871681522054611d0a908263ffffffff611e4c16565b600160a060020a0386166000908152600160205260409020558115611da157600254600160a060020a0316600090815260016020526040902054611d54908363ffffffff611e4c16565b60028054600160a060020a03908116600090815260016020908152604091829020949094559154825186815292519116923392600080516020611ea1833981519152929081900390910190a35b604080518281529051600160a060020a038716913391600080516020611ea18339815191529181900360200190a35050505050565b600160a060020a03918216600090815260056020908152604080832093909416825291909152205490565b600082611e1057506000610f5b565b82820282848281611e1d57fe5b041461170857fe5b600080828481611e3157fe5b04949350505050565b600082821115611e4657fe5b50900390565b60008282018381101561170857fefe45524332303a207472616e7366657220746f20746865207a65726f206164647265737345524332303a20617070726f766520746f20746865207a65726f2061646472657373ddf252ad1be2c89b69c2b068fc378daa952ba7f163c4a11628f55a4df523b3ef45524332303a207472616e736665722066726f6d20746865207a65726f2061646472657373a265627a7a7231582045b709bf054f2a704e8acad447ba59cdfa3409133823b5ef9281bcaa1a7f150b64736f6c63430005100032a265627a7a72315820338c53a2cf111c3a0690c4b3e12989aa93fd3ffc0db9732e5f0e4a9a9212eb0564736f6c63430005100032",
  "source": "/**\n * @file AssetTokenization.sol\n # @author https://github.com/amityadav0\n *\n * contract to store and create erc20 tokens on payment\n */\n\npragma solidity >=0.5.0 <0.6.0;\n\nimport \"../Tokenize.sol\";\nimport \"../Proxy/InitializableOwnable.sol\";\nimport \"../Proxy/Upgradeable.sol\";\n\ninterface InitializeInterface {\n    function initialize(address _owner) external;\n}\n\ncontract AssetTokenizationStorage {\n    using SafeMath for uint256;\n\n    // State variables\n    address payable public contractOwner; // Admin address\n    uint256 public tokenId; // ID for token being created - use: mapping token to address\n    uint8 public decimal; // Decimals for tokens being created\n    uint256 public creationFee; // Fee charged for token creation\n    address public verificationListAddress; //the uinque verificationList\n\n    // Mappings\n    mapping(uint256 => address) tokenOwner; // Token owner address mapped to token id\n    mapping(uint256 => address) tokenAddress; // Token contract address mapped to token id\n    mapping(uint256 => Token) tokenDetails; // Token details mapped to token id\n    mapping(address => Token) tokenContract; // Token details mapped to token contract address\n    mapping(address => string) ownerInfo; // A URI that takes to where all the info is stores(It would be like https://ipfs.io/ipfs/[ipfsHash])\n    mapping(address => mapping(uint256 => address)) ownerTokens; // number of created tokens owned and ERC20 contract address, referenced by owner address\n    mapping(address => address[]) tokenCount; // Number of token contracts owned\n\n    // Structs\n    struct Token {\n        string name; // Name of token\n        string symbol; // Symbol of token\n        uint256 decimal; // Decimals in token\n        uint256 supply; // Total token supply\n        address payable owner; // web3 wallet address of token submitter\n        uint256 tokenId; // Token id number - increments on token creation\n        string tokenDesc; // Description of token project\n        string assetType; // Type of asset being tokenized\n        string assetId; // Asset ID if any (Registration number for example)\n        bool holderLimit; // Is there a limit to the number of addresses allowed to hold the token\n        uint256 maxHolders; // Maximum number of holders allowed (optional)\n        //      bool restrictedHolders; // Can anyone hold the tokens or is it restricted to verified investors\n        bool privateVerificationList; // Should the token use private's verification list or the owners'\n        bool ownerVerificationList; // Is the owner using their own verification list\n        string tokenURI; //A URI that has the metadata of the token\n    }\n}\n\ncontract AddedStorage {\n    //Whatever variable you want to add\n    uint256 public newVariable;\n}\n\ncontract UpdatedAssetTokenization is\n    Upgradeable,\n    InitializableOwnable,\n    AssetTokenizationStorage,\n    AddedStorage,\n    InitializeInterface\n{\n    // initializes (works like a constructor)\n    function initialize(address _owner) external {\n        super.initialize();\n        InitializableOwnable.initializeOwnable(_owner);\n        contractOwner = address(0xfCfA3389103E766aaC000CBBD2eF9dE387A42e8d);\n        decimal = 18;\n        tokenId = 0;\n        creationFee = (1 ether) / 4;\n    }\n\n    // Events\n    event TokenCreated(\n        uint256 tokenId,\n        string _name,\n        string _symbol,\n        uint256 _supply,\n        address _owner,\n        string tokenURI\n    );\n\n    function aNewFunction() public {\n        //do something\n        newVariable = 100;\n    }\n\n    // Methods\n    function tokenizeAsset(\n        string memory _name,\n        string memory _symbol,\n        uint256 _supply,\n        address payable _tokenOwner,\n        string memory _tokenDesc,\n        string memory _assetType,\n        string memory _assetId,\n        bool _holderLimit,\n        uint256 _maxHolders,\n        //    bool _restrictedHolders,\n        bool _privateVerificationList,\n        bool _ownerVerificationList,\n        string memory _tokenURI\n    ) public payable returns (bool) {\n        //require(msg.value == creationFee);\n        Token memory token = Token(\n            _name,\n            _symbol,\n            decimal,\n            _supply,\n            _tokenOwner,\n            tokenId,\n            _tokenDesc,\n            _assetType,\n            _assetId,\n            _holderLimit,\n            _maxHolders,\n            //          _restrictedHolders,\n            _privateVerificationList,\n            _ownerVerificationList,\n            _tokenURI\n        );\n        tokenDetails[token.tokenId] = token;\n        //  contractOwner.transfer(msg.value);\n\n        Tokenize tokenized = new Tokenize(\n            token.name,\n            token.symbol,\n            token.decimal,\n            token.owner,\n            token.supply,\n            token.tokenURI,\n            token.privateVerificationList,\n            verificationListAddress,\n            token.ownerVerificationList,\n            contractOwner\n        );\n        //If they want to use private verification list then whitleist the owner\n        if (token.privateVerificationList == true)\n            IVerificationList(verificationListAddress).addWhiteList(\n                token.owner\n            );\n        tokenAddress[token.tokenId] = address(tokenized);\n        tokenOwner[token.tokenId] = address(token.owner);\n        tokenCount[token.owner].push(address(tokenized));\n        tokenContract[address(tokenized)] = token;\n        ownerTokens[token.owner][token.tokenId] = tokenAddress[token.tokenId];\n        tokenId += 1;\n        emit TokenCreated(\n            token.tokenId,\n            token.name,\n            token.symbol,\n            token.supply,\n            token.owner,\n            token.tokenURI\n        );\n        //return(tokenAddress[token.tokenId]);\n        return (true);\n    }\n\n    function enterDetails(address _which, string memory _ownerDetails)\n        public\n        onlyOwner\n        returns (bool)\n    {\n        //We need to allow access to this method to contractOwner only\n        ownerInfo[_which] = _ownerDetails;\n        return (true);\n    }\n\n    function updateVerificationListAddress(address _verificationListAddress)\n        public\n        onlyOwner\n    {\n        verificationListAddress = _verificationListAddress;\n    }\n\n    function getTokenAddresses(address _owner)\n        public\n        view\n        returns (\n            address[] memory // Should this also be restricted to contractOwner?\n        )\n    {\n        return (tokenCount[_owner]);\n    }\n\n    function getTokenAddress(address _owner, uint256 _id)\n        public\n        view\n        returns (address)\n    {\n        return (ownerTokens[_owner][_id]);\n    }\n}\n",
  "sourcePath": "/home/ay/Asset-Tokenization/contracts/test/UpdatedSelfTokenizer.sol",
  "compiler": {
    "name": "solc",
    "version": "0.5.16+commit.9c3226ce.Emscripten.clang"
  },
  "schemaVersion": "3.2.5",
  "updatedAt": "2021-02-12T10:19:52.627Z",
  "devdoc": {
    "methods": {
      "implementation()": {
        "details": "Tells the address of the current implementation",
        "return": "address of the current implementation"
      },
      "initialize()": {
        "details": "Validates the caller is the versions registry. THIS FUNCTION SHOULD BE OVERRIDDEN CALLING SUPER"
      }
    }
  },
  "userdoc": {
    "methods": {}
  }
}