{
  "contractName": "UpgradeabilityStorage",
  "abi": [
    {
      "payable": true,
      "stateMutability": "payable",
      "type": "fallback"
    },
    {
      "constant": true,
      "inputs": [],
      "name": "registry",
      "outputs": [
        {
          "internalType": "contract IRegistry",
          "name": "",
          "type": "address"
        }
      ],
      "payable": false,
      "stateMutability": "view",
      "type": "function"
    },
    {
      "constant": true,
      "inputs": [],
      "name": "implementation",
      "outputs": [
        {
          "internalType": "address",
          "name": "",
          "type": "address"
        }
      ],
      "payable": false,
      "stateMutability": "view",
      "type": "function"
    }
  ],
  "bytecode": "0x608060405234801561001057600080fd5b506101b8806100206000396000f3fe608060405260043610610045577c010000000000000000000000000000000000000000000000000000000060003504635c60da1b81146100f85780637b10399914610136575b600061004f61014b565b905073ffffffffffffffffffffffffffffffffffffffff81166100d357604080517f08c379a000000000000000000000000000000000000000000000000000000000815260206004820152601660248201527f4552525f494d504c454d454e5445494f4e5f5a45524f00000000000000000000604482015290519081900360640190fd5b60405136600082376000803683855af43d806000843e8180156100f4578184f35b8184fd5b34801561010457600080fd5b5061010d61014b565b6040805173ffffffffffffffffffffffffffffffffffffffff9092168252519081900360200190f35b34801561014257600080fd5b5061010d610167565b60015473ffffffffffffffffffffffffffffffffffffffff1690565b60005473ffffffffffffffffffffffffffffffffffffffff168156fea265627a7a72315820f3bd5761cdfc3210bc0101ca0860167a771fc33cf56a74c2f4917043735286c564736f6c63430005100032",
  "source": "pragma solidity ^0.5.9;\n\nimport './IRegistry.sol';\nimport './Proxy.sol';\n\n/**\n * @title UpgradeabilityStorage\n * @dev This contract holds all the necessary state variables to support the upgrade functionality\n */\ncontract UpgradeabilityStorage is Proxy {\n    // Versions registry\n    IRegistry public registry;\n\n    // Address of the current implementation\n    address internal _implementation;\n\n    /**\n     * @dev Tells the address of the current implementation\n     * @return address of the current implementation\n     */\n    function implementation() public view returns (address) {\n        return _implementation;\n    }\n}\n",
  "sourcePath": "/home/ay/Asset-Tokenization/contracts/Proxy/UpgradeabilityStorage.sol",
  "compiler": {
    "name": "solc",
    "version": "0.5.16+commit.9c3226ce.Emscripten.clang"
  },
  "schemaVersion": "3.2.5",
  "updatedAt": "2021-02-12T10:19:52.530Z",
  "devdoc": {
    "details": "This contract holds all the necessary state variables to support the upgrade functionality",
    "methods": {
      "implementation()": {
        "details": "Tells the address of the current implementation",
        "return": "address of the current implementation"
      }
    },
    "title": "UpgradeabilityStorage"
  },
  "userdoc": {
    "methods": {}
  }
}