{
  "contractName": "VerificationList",
  "abi": [
    {
      "anonymous": false,
      "inputs": [
        {
          "indexed": false,
          "internalType": "address",
          "name": "_user",
          "type": "address"
        }
      ],
      "name": "AddedBlackList",
      "type": "event"
    },
    {
      "anonymous": false,
      "inputs": [
        {
          "indexed": false,
          "internalType": "address",
          "name": "_user",
          "type": "address"
        }
      ],
      "name": "AddedWhiteList",
      "type": "event"
    },
    {
      "anonymous": false,
      "inputs": [
        {
          "indexed": false,
          "internalType": "address",
          "name": "_blackListedUser",
          "type": "address"
        },
        {
          "indexed": false,
          "internalType": "uint256",
          "name": "_balance",
          "type": "uint256"
        }
      ],
      "name": "DestroyedBlackFunds",
      "type": "event"
    },
    {
      "anonymous": false,
      "inputs": [
        {
          "indexed": true,
          "internalType": "address",
          "name": "previousOwner",
          "type": "address"
        },
        {
          "indexed": true,
          "internalType": "address",
          "name": "newOwner",
          "type": "address"
        }
      ],
      "name": "OwnershipTransferred",
      "type": "event"
    },
    {
      "anonymous": false,
      "inputs": [
        {
          "indexed": false,
          "internalType": "address",
          "name": "_user",
          "type": "address"
        }
      ],
      "name": "RemovedBlackList",
      "type": "event"
    },
    {
      "anonymous": false,
      "inputs": [
        {
          "indexed": false,
          "internalType": "address",
          "name": "_user",
          "type": "address"
        }
      ],
      "name": "RemovedWhiteList",
      "type": "event"
    },
    {
      "constant": false,
      "inputs": [
        {
          "internalType": "address",
          "name": "_toAdd",
          "type": "address"
        }
      ],
      "name": "addAuthorized",
      "outputs": [],
      "payable": false,
      "stateMutability": "nonpayable",
      "type": "function"
    },
    {
      "constant": true,
      "inputs": [
        {
          "internalType": "address",
          "name": "",
          "type": "address"
        }
      ],
      "name": "authorized",
      "outputs": [
        {
          "internalType": "bool",
          "name": "",
          "type": "bool"
        }
      ],
      "payable": false,
      "stateMutability": "view",
      "type": "function"
    },
    {
      "constant": true,
      "inputs": [
        {
          "internalType": "address",
          "name": "_toCheck",
          "type": "address"
        }
      ],
      "name": "checkAuthorization",
      "outputs": [
        {
          "internalType": "bool",
          "name": "",
          "type": "bool"
        }
      ],
      "payable": false,
      "stateMutability": "view",
      "type": "function"
    },
    {
      "constant": true,
      "inputs": [
        {
          "internalType": "address",
          "name": "",
          "type": "address"
        }
      ],
      "name": "isBlackListed",
      "outputs": [
        {
          "internalType": "bool",
          "name": "",
          "type": "bool"
        }
      ],
      "payable": false,
      "stateMutability": "view",
      "type": "function"
    },
    {
      "constant": true,
      "inputs": [
        {
          "internalType": "address",
          "name": "",
          "type": "address"
        }
      ],
      "name": "isWhiteListed",
      "outputs": [
        {
          "internalType": "bool",
          "name": "",
          "type": "bool"
        }
      ],
      "payable": false,
      "stateMutability": "view",
      "type": "function"
    },
    {
      "constant": true,
      "inputs": [],
      "name": "owner",
      "outputs": [
        {
          "internalType": "address",
          "name": "",
          "type": "address"
        }
      ],
      "payable": false,
      "stateMutability": "view",
      "type": "function"
    },
    {
      "constant": false,
      "inputs": [
        {
          "internalType": "address",
          "name": "_toRemove",
          "type": "address"
        }
      ],
      "name": "removeAuthorized",
      "outputs": [],
      "payable": false,
      "stateMutability": "nonpayable",
      "type": "function"
    },
    {
      "constant": false,
      "inputs": [
        {
          "internalType": "address",
          "name": "newOwner",
          "type": "address"
        }
      ],
      "name": "transferOwnership",
      "outputs": [],
      "payable": false,
      "stateMutability": "nonpayable",
      "type": "function"
    },
    {
      "constant": true,
      "inputs": [
        {
          "internalType": "address",
          "name": "_maker",
          "type": "address"
        }
      ],
      "name": "getBlackListStatus",
      "outputs": [
        {
          "internalType": "bool",
          "name": "",
          "type": "bool"
        }
      ],
      "payable": false,
      "stateMutability": "view",
      "type": "function"
    },
    {
      "constant": true,
      "inputs": [
        {
          "internalType": "address",
          "name": "_maker",
          "type": "address"
        }
      ],
      "name": "getWhiteListStatus",
      "outputs": [
        {
          "internalType": "bool",
          "name": "",
          "type": "bool"
        }
      ],
      "payable": false,
      "stateMutability": "view",
      "type": "function"
    },
    {
      "constant": true,
      "inputs": [],
      "name": "getOwner",
      "outputs": [
        {
          "internalType": "address",
          "name": "",
          "type": "address"
        }
      ],
      "payable": false,
      "stateMutability": "view",
      "type": "function"
    },
    {
      "constant": false,
      "inputs": [
        {
          "internalType": "address",
          "name": "_evilUser",
          "type": "address"
        }
      ],
      "name": "addBlackList",
      "outputs": [],
      "payable": false,
      "stateMutability": "nonpayable",
      "type": "function"
    },
    {
      "constant": false,
      "inputs": [
        {
          "internalType": "address",
          "name": "_clearedUser",
          "type": "address"
        }
      ],
      "name": "removeBlackList",
      "outputs": [],
      "payable": false,
      "stateMutability": "nonpayable",
      "type": "function"
    },
    {
      "constant": false,
      "inputs": [
        {
          "internalType": "address",
          "name": "_verifiedUser",
          "type": "address"
        }
      ],
      "name": "addWhiteList",
      "outputs": [],
      "payable": false,
      "stateMutability": "nonpayable",
      "type": "function"
    },
    {
      "constant": false,
      "inputs": [
        {
          "internalType": "address",
          "name": "_exUser",
          "type": "address"
        }
      ],
      "name": "removeWhiteList",
      "outputs": [],
      "payable": false,
      "stateMutability": "nonpayable",
      "type": "function"
    }
  ],
  "bytecode": "0x6080604081905260008054600160a060020a0319163317808255600160a060020a0316917f8be0079c531659141344cd1fd0a4f28419497f9722a3daafe3b4186f6b6457e0908290a3610a51806100576000396000f3fe608060405234801561001057600080fd5b5060043610610112576000357c01000000000000000000000000000000000000000000000000000000009004806389f4dd47116100b4578063e47d606011610083578063e47d6060146102af578063e4997dc5146102d5578063e7cd4a04146102fb578063f2fde38b1461032157610112565b806389f4dd47146102355780638da5cb5b1461025b578063b918161114610263578063cf1c316a1461028957610112565b806359bf1abe116100f057806359bf1abe1461018b578063669b8f20146101c55780636f9170f6146101eb578063893d20e81461021157610112565b80630ecb93c0146101175780632042e5c21461013f578063485d7d9414610165575b600080fd5b61013d6004803603602081101561012d57600080fd5b5035600160a060020a0316610347565b005b61013d6004803603602081101561015557600080fd5b5035600160a060020a03166104aa565b61013d6004803603602081101561017b57600080fd5b5035600160a060020a031661056c565b6101b1600480360360208110156101a157600080fd5b5035600160a060020a03166105cd565b604080519115158252519081900360200190f35b6101b1600480360360208110156101db57600080fd5b5035600160a060020a0316610656565b6101b16004803603602081101561020157600080fd5b5035600160a060020a03166106df565b6102196106f4565b60408051600160a060020a039092168252519081900360200190f35b6101b16004803603602081101561024b57600080fd5b5035600160a060020a0316610703565b61021961073a565b6101b16004803603602081101561027957600080fd5b5035600160a060020a0316610749565b61013d6004803603602081101561029f57600080fd5b5035600160a060020a031661075e565b6101b1600480360360208110156102c557600080fd5b5035600160a060020a03166107af565b61013d600480360360208110156102eb57600080fd5b5035600160a060020a03166107c4565b61013d6004803603602081101561031157600080fd5b5035600160a060020a0316610886565b61013d6004803603602081101561033757600080fd5b5035600160a060020a0316610971565b3360009081526001602052604090205460ff168061036f5750600054600160a060020a031633145b6103b1576040805160e560020a62461bcd02815260206004820152601a60248201526000805160206109fd833981519152604482015290519081900360640190fd5b600160a060020a0381166103c457600080fd5b600054600160a060020a03828116911614156103df57600080fd5b600160a060020a0381166000908152600260209081526040808320805460ff19166001179055600390915290205460ff161561046b57600160a060020a038116600081815260036020908152604091829020805460ff19169055815192835290517f9ff0fe46bde692ffa123229beb5debd1c068a183c3b74be4f2d749f628203d3a9281900390910190a15b60408051600160a060020a038316815290517f42e160154868087d6bfdc0ca23d96a1c1cfa32f1b72ba9ba27b69b98a0d819dc9181900360200190a150565b3360009081526001602052604090205460ff16806104d25750600054600160a060020a031633145b610514576040805160e560020a62461bcd02815260206004820152601a60248201526000805160206109fd833981519152604482015290519081900360640190fd5b600160a060020a038116600081815260036020908152604091829020805460ff19169055815192835290517f9ff0fe46bde692ffa123229beb5debd1c068a183c3b74be4f2d749f628203d3a9281900390910190a150565b600054600160a060020a0316331461058357600080fd5b600160a060020a03811661059657600080fd5b600160a060020a0381163314156105ac57600080fd5b600160a060020a03166000908152600160205260409020805460ff19169055565b3360009081526001602052604081205460ff16806105f55750600054600160a060020a031633145b610637576040805160e560020a62461bcd02815260206004820152601a60248201526000805160206109fd833981519152604482015290519081900360640190fd5b50600160a060020a031660009081526002602052604090205460ff1690565b3360009081526001602052604081205460ff168061067e5750600054600160a060020a031633145b6106c0576040805160e560020a62461bcd02815260206004820152601a60248201526000805160206109fd833981519152604482015290519081900360640190fd5b50600160a060020a031660009081526003602052604090205460ff1690565b60036020526000908152604090205460ff1681565b600054600160a060020a031690565b60008054600160a060020a0316331461071b57600080fd5b50600160a060020a031660009081526001602052604090205460ff1690565b600054600160a060020a031681565b60016020526000908152604090205460ff1681565b600054600160a060020a0316331461077557600080fd5b600160a060020a03811661078857600080fd5b600160a060020a03166000908152600160208190526040909120805460ff19169091179055565b60026020526000908152604090205460ff1681565b3360009081526001602052604090205460ff16806107ec5750600054600160a060020a031633145b61082e576040805160e560020a62461bcd02815260206004820152601a60248201526000805160206109fd833981519152604482015290519081900360640190fd5b600160a060020a038116600081815260026020908152604091829020805460ff19169055815192835290517fd7e9ec6e6ecd65492dce6bf513cd6867560d49544421d0783ddf06e76c24470c9281900390910190a150565b3360009081526001602052604090205460ff16806108ae5750600054600160a060020a031633145b6108f0576040805160e560020a62461bcd02815260206004820152601a60248201526000805160206109fd833981519152604482015290519081900360640190fd5b600160a060020a03811660009081526002602052604090205460ff161561091657600080fd5b600160a060020a038116600081815260036020908152604091829020805460ff19166001179055815192835290517f64fd21439447139bed5a374a0f62ecc0fbd38cf2687d4ed5d587cb55dfbd42589281900390910190a150565b600054600160a060020a0316331461098857600080fd5b600160a060020a038116156109f95760008054604051600160a060020a03808516939216917f8be0079c531659141344cd1fd0a4f28419497f9722a3daafe3b4186f6b6457e091a36000805473ffffffffffffffffffffffffffffffffffffffff1916600160a060020a0383161790555b5056fe4552525f4f4e4c595f4154484f52495a45445f414c4c4f574544000000000000a265627a7a72315820b0f3554247a80db5732de080228dbcac020a5cee9f3515589853332ffe7f6a6664736f6c63430005100032",
  "source": "/**\n * @file VerificationList.sol\n * @author https://github.com/amityadav0\n *\n * contract to store whitelist and blacklist details\n */\n\npragma solidity >=0.5.0 <0.6.0;\n\nimport \"./Ownable.sol\";\n\ncontract Authorizable is Ownable {\n    mapping(address => bool) public authorized;\n\n    modifier onlyAuthorized() {\n        require(\n            authorized[msg.sender] || owner == msg.sender,\n            \"ERR_ONLY_ATHORIZED_ALLOWED\"\n        );\n        _;\n    }\n\n    function addAuthorized(address _toAdd) public onlyOwner {\n        require(_toAdd != address(0));\n        authorized[_toAdd] = true;\n    }\n\n    function removeAuthorized(address _toRemove) public onlyOwner {\n        require(_toRemove != address(0));\n        require(_toRemove != msg.sender);\n        authorized[_toRemove] = false;\n    }\n\n    function checkAuthorization(address _toCheck)\n        public\n        view\n        onlyOwner\n        returns (bool)\n    {\n        return authorized[_toCheck];\n    }\n}\n\ncontract VerificationList is Authorizable {\n    // Getters to allow the same blacklist/whitelist to be used by other contracts\n    function getBlackListStatus(address _maker)\n        public\n        view\n        onlyAuthorized\n        returns (bool)\n    {\n        return isBlackListed[_maker];\n    }\n\n    function getWhiteListStatus(address _maker)\n        public\n        view\n        onlyAuthorized\n        returns (bool)\n    {\n        return isWhiteListed[_maker];\n    }\n\n    function getOwner() external view returns (address) {\n        return owner;\n    }\n\n    mapping(address => bool) public isBlackListed;\n    mapping(address => bool) public isWhiteListed;\n\n    function addBlackList(address _evilUser) public onlyAuthorized {\n        require(_evilUser != address(0));\n        require(_evilUser != owner);\n        isBlackListed[_evilUser] = true;\n        if (isWhiteListed[_evilUser]) {\n            isWhiteListed[_evilUser] = false;\n            emit RemovedWhiteList(_evilUser);\n        }\n        emit AddedBlackList(_evilUser);\n    }\n\n    function removeBlackList(address _clearedUser) public onlyAuthorized {\n        isBlackListed[_clearedUser] = false;\n        emit RemovedBlackList(_clearedUser);\n    }\n\n    function addWhiteList(address _verifiedUser) public onlyAuthorized {\n        require(!isBlackListed[_verifiedUser]);\n        isWhiteListed[_verifiedUser] = true;\n        emit AddedWhiteList(_verifiedUser);\n    }\n\n    function removeWhiteList(address _exUser) public onlyAuthorized {\n        isWhiteListed[_exUser] = false;\n        emit RemovedWhiteList(_exUser);\n    }\n\n    event DestroyedBlackFunds(address _blackListedUser, uint256 _balance);\n\n    event AddedBlackList(address _user);\n\n    event RemovedBlackList(address _user);\n\n    event AddedWhiteList(address _user);\n\n    event RemovedWhiteList(address _user);\n}\n",
  "sourcePath": "/home/ay/Asset-Tokenization/contracts/VerificationList.sol",
  "compiler": {
    "name": "solc",
    "version": "0.5.16+commit.9c3226ce.Emscripten.clang"
  },
  "schemaVersion": "3.2.5",
  "updatedAt": "2021-02-12T10:19:52.622Z",
  "devdoc": {
    "methods": {}
  },
  "userdoc": {
    "methods": {}
  }
}